:100000000020002091020000BD020000BD0200009F
:10001000BD020000BD020000BD020000BD020000E4
:10002000BD020000BD020000BD020000BD020000D4
:10003000BD020000BD020000BD020000BD020000C4
:10004000BD020000BD020000BD020000BD020000B4
:10005000BD020000BD020000BD020000BD020000A4
:10006000BD020000BD020000BD020000BD02000094
:10007000BD020000BD020000BD020000BD02000084
:10008000BD020000BD020000BD020000BD02000074
:10009000BD02000010B5064C2378002B07D1054B9C
:1000A000002B02D0044800E000BF0123237010BDE4
:1000B0007C040020000000009803000008B5084BF5
:1000C000002B03D00748084900E000BF0748036839
:1000D000002B03D0064B002B00D0984708BDC0462C
:1000E0000000000098030000800400207804002035
:1000F00000000000164B002B00D1144B9D464022FF
:1001000092029A1A924600218B460F461348144ACF
:10011000121A00F015F90F4B002B00D098470E4B28
:10012000002B00D098470020002104000D000D484E
:10013000002802D00C4800E000BF00F0DBF82000EF
:10014000290000F05DF800F0BFF8C046000008008C
:100150000020002000000000000000007C040020BF
:100160009C040020000000000000000080B582B068
:1001700000AF7860104B1B681A1C104B9A4200DDD0
:1001800016E00D4B1B689B059B0D04D10A4B1B68A9
:10019000181C00F0EDF8084B1A687B68101C191C3D
:1001A000042200F0EDF8044B1B681A1D024B1A6084
:1001B000BD4602B080BDC04600000020FFFF010028
:1001C00080B582B000AF094B1B687B607B681B0E5B
:1001D000812B08D8064B074A1A60074B064A11685C
:1001E000064A0A401A60BD4602B080BDFC81E00F9D
:1001F00018600C4005000004E4800C40FFFFFFFE87
:1002000080B582B000AFFFF7DBFF00237B6006E024
:100210003B1D181CFFF7AAFF7B6801337B607B68DE
:10022000632BF5DD0023181CBD4602B080BDC0461F
:1002300080B500AF72B6074B1B68013304D0054B85
:100240001B685A1C034B1A60024B1B68181CBD46E6
:1002500080BDC0469804002080B582B000AF0B4B33
:100260001B68002B0DD0094B1B685A1E074B1A60E8
:10027000064B1B687B607B68002B00D162B67B68F5
:1002800000E00023181CBD4602B080BD9804002089
:10029000064880470649074A074B9B1A03DD043B83
:1002A000C858D050FBDCFFF725FF0000C10200005A
:1002B000A4030000000000207C040020FEE7C046EC
:1002C00080B500AFBD4680BD084B10B5041C002BA7
:1002D00002D0002100E000BF054B1868836A002BA4
:1002E00000D09847201C00F033F8C0460000000002
:1002F0009403000070B50E4B0E4D0024ED1AAD10A6
:100300001E1CAC4204D0A300F35898470134F8E710
:1003100000F020F8084B094D0024ED1AAD101E1C0A
:10032000AC4204D0A300F35898470134F8E770BDFD
:100330007004002070040020700400207404002069
:10034000031C8218934202D019700133FAE77047F8
:10035000FEE7C046F8B5C046F8BC08BC9E467047EC
:10036000F8B5C046F8BC08BC9E46704700000000C7
:1003700001B40248844601BC604700BF0D03002061
:1003800001B40248844601BC604700BFB9030020A5
:0C039000430000000400002000000000FA
:08039C0058FDFF7F0100000085
:1003A4000040000000000000000000000000000009
:1003B4000000000000000000000000000000000039
:1003C4000000000090030000000000000000000096
:1003D4000000000000000000000000000000000019
:1003E4000000000000000000000000000000000009
:1003F40000000000000000000000000000000000F9
:100404000000000080B584B000AF7860184BFB603A
:1004140002E0FB68013BFB60164BDA6901231340E1
:1004240002D0FB68002BF4D1FB68002B01D1FD2323
:1004340019E0104B7A681A610E4B0122DA600D4BF9
:10044400DB69BB60BA68062313400BD0BA68042387
:10045400134001D0FF2306E0BA680223134001D001
:10046400FE2300E000235BB2181CBD4604B080BD2F
:100474008096980000000C4080B588B000AFF8600A
:10048400B960FB1D1A703B1C173300221A7001233C
:100494003B61BB68002B00D186E0FB1D1B78002B61
:1004A4003CD10023BB6134E0434AFB68191DF96069
:1004B4001B689361BB690133BB613B69022B0ED19D
:1004C400C0463D4BDA6908231340FAD03A4AFB6828
:1004D400191DF9601B689361BB690133BB61364B1D
:1004E4000822DA60354BFB6102E0FB69013BFB61EA
:1004F400314BDA690123134002D0FB69002BF4D19C
:10050400FB69002B05D13B1C1733FD221A70C04632
:100514004AE0BA69BB689A42C6D345E00023BB618E
:1005240000F066F925E008E0234BDA69192313404B
:10053400102B02D1204B1022DA601F4BDA690823FA
:100544001340F1D01C4BFA6812689A613B69012B85
:1005540006D03B69022B06D1BA690123134002D0AD
:10056400154B1022DA60FB680433FB60BB6901336E
:10057400BB61BA69BB689A42D5D300F041F90F4B0D
:10058400FB6102E0FB69013BFB610B4BDA69012370
:10059400134002D0FB69002BF4D1FB69002B03D17B
:1005A4003B1C1733FD221A703B1C17331B785BB2BC
:1005B400181CBD4608B080BD00000C408096980011
:1005C40090B58BB000AFF860B9607A601A1CFB1C60
:1005D4001A703B1C1B3300221A70334B324A926848
:1005E40001210A439A607B689B087B6100237B623C
:1005F400BB68FB6146E07B6A9B00FA68D3183C1C2D
:100604001B34181CFFF7FEFE031C23703B1C1B331A
:100614001B785BB2002B03D03B1C1B331B783EE0E2
:100624007B6A9B00FA68D3189B059B0D8022D2003D
:10063400D31A9B083B627A697B6AD21A3B6A9A4254
:1006440003D27A697B6AD31A3B623C1C1B34F96976
:100654003A6AFB1C1B78081C111C1A1CFFF70CFFC0
:10066400031C23703B1C1B331B785BB2002B00D094
:100674000CE07A6A3B6AD3187B623B6A9B00FA6996
:10068400D318FB617A6A7B699A42B4D3064B064A53
:10069400926801218A439A603B1C1B331B785BB22E
:1006A400181CBD460BB090BD00000C4080B584B052
:1006B40000AF7860264BFB60264B264A92680121E6
:1006C4000A439A60234B7A681A61224B0122DA604A
:1006D400204BDA690423134007D01E4B1D4A92684D
:1006E40001218A439A60FF232DE01A4BDA69022321
:1006F400134007D0174B174A926801218A439A6026
:10070400FE2320E0134B0222DA6002E0FB68013B87
:10071400FB60104BDA690123134002D0FB68002B05
:10072400F4D1FB68002B07D10A4B0A4A92680121D5
:100734008A439A60FD2306E0064B064A926801212B
:100744008A439A6000235BB2181CBD4604B080BD86
:100754008096980000000C4080B584B000AFF8602B
:10076400B9607A60F968BA687B68081C111C1A1CA5
:100774000023FFF725FF031C181CBD4604B080BDF1
:1007840080B584B000AFF860B9607A60F968BA687F
:100794007B68081C111C1A1C0123FFF711FF031CA2
:1007A400181CBD4604B080BD80B500AF0D4B0D4A8A
:1007B400926801210A439A600A4B0B4A5A65094B15
:1007C40080225200DA60C046064BDA6901231340E6
:1007D400FAD1044B00225A6500235BB2181CBD46B3
:1007E40080BDC04600000C401A63000000000000F9
:1007F40001B40248844601BC604700BF31020000D6
:1008040001B40248844601BC604700BF590200009D
:0C081400BD000000950000000000000086
:040000030000029166
:00000001FF
